{
  "_format": "hh-sol-artifact-1",
  "contractName": "CertificateRegistry",
  "sourceName": "contracts/CertificateRegistry.sol",
  "abi": [
    {
      "inputs": [
        {
          "internalType": "address",
          "name": "initialOwner",
          "type": "address"
        }
      ],
      "stateMutability": "nonpayable",
      "type": "constructor"
    },
    {
      "inputs": [
        {
          "internalType": "string",
          "name": "certificateId",
          "type": "string"
        }
      ],
      "name": "CertificateAlreadyExists",
      "type": "error"
    },
    {
      "inputs": [
        {
          "internalType": "string",
          "name": "certificateId",
          "type": "string"
        }
      ],
      "name": "CertificateAlreadyRevoked",
      "type": "error"
    },
    {
      "inputs": [
        {
          "internalType": "string",
          "name": "certificateId",
          "type": "string"
        }
      ],
      "name": "CertificateNotFound",
      "type": "error"
    },
    {
      "inputs": [],
      "name": "EmptyCertificateId",
      "type": "error"
    },
    {
      "inputs": [],
      "name": "NotOwnerOrAuthorizedIssuer",
      "type": "error"
    },
    {
      "inputs": [
        {
          "internalType": "address",
          "name": "owner",
          "type": "address"
        }
      ],
      "name": "OwnableInvalidOwner",
      "type": "error"
    },
    {
      "inputs": [
        {
          "internalType": "address",
          "name": "account",
          "type": "address"
        }
      ],
      "name": "OwnableUnauthorizedAccount",
      "type": "error"
    },
    {
      "inputs": [],
      "name": "ZeroAddressIssuer",
      "type": "error"
    },
    {
      "anonymous": false,
      "inputs": [
        {
          "indexed": true,
          "internalType": "string",
          "name": "certificateId",
          "type": "string"
        },
        {
          "indexed": true,
          "internalType": "address",
          "name": "issuer",
          "type": "address"
        },
        {
          "indexed": false,
          "internalType": "bytes32",
          "name": "documentHash",
          "type": "bytes32"
        }
      ],
      "name": "CertificateRegistered",
      "type": "event"
    },
    {
      "anonymous": false,
      "inputs": [
        {
          "indexed": true,
          "internalType": "string",
          "name": "certificateId",
          "type": "string"
        },
        {
          "indexed": true,
          "internalType": "address",
          "name": "revokedBy",
          "type": "address"
        }
      ],
      "name": "CertificateRevoked",
      "type": "event"
    },
    {
      "anonymous": false,
      "inputs": [
        {
          "indexed": true,
          "internalType": "address",
          "name": "issuer",
          "type": "address"
        }
      ],
      "name": "IssuerAuthorized",
      "type": "event"
    },
    {
      "anonymous": false,
      "inputs": [
        {
          "indexed": true,
          "internalType": "address",
          "name": "issuer",
          "type": "address"
        }
      ],
      "name": "IssuerRevoked",
      "type": "event"
    },
    {
      "anonymous": false,
      "inputs": [
        {
          "indexed": true,
          "internalType": "address",
          "name": "previousOwner",
          "type": "address"
        },
        {
          "indexed": true,
          "internalType": "address",
          "name": "newOwner",
          "type": "address"
        }
      ],
      "name": "OwnershipTransferred",
      "type": "event"
    },
    {
      "inputs": [
        {
          "internalType": "address",
          "name": "issuer",
          "type": "address"
        }
      ],
      "name": "authorizeIssuer",
      "outputs": [],
      "stateMutability": "nonpayable",
      "type": "function"
    },
    {
      "inputs": [
        {
          "internalType": "address",
          "name": "",
          "type": "address"
        }
      ],
      "name": "authorizedIssuers",
      "outputs": [
        {
          "internalType": "bool",
          "name": "",
          "type": "bool"
        }
      ],
      "stateMutability": "view",
      "type": "function"
    },
    {
      "inputs": [
        {
          "internalType": "string",
          "name": "certificateId",
          "type": "string"
        }
      ],
      "name": "getCertificate",
      "outputs": [
        {
          "components": [
            {
              "internalType": "string",
              "name": "certificateId",
              "type": "string"
            },
            {
              "internalType": "string",
              "name": "ownerName",
              "type": "string"
            },
            {
              "internalType": "string",
              "name": "courseName",
              "type": "string"
            },
            {
              "internalType": "string",
              "name": "issueDate",
              "type": "string"
            },
            {
              "internalType": "bytes32",
              "name": "documentHash",
              "type": "bytes32"
            },
            {
              "internalType": "address",
              "name": "issuer",
              "type": "address"
            },
            {
              "internalType": "bool",
              "name": "exists",
              "type": "bool"
            },
            {
              "internalType": "bool",
              "name": "revoked",
              "type": "bool"
            }
          ],
          "internalType": "struct CertificateRegistry.Certificate",
          "name": "",
          "type": "tuple"
        }
      ],
      "stateMutability": "view",
      "type": "function"
    },
    {
      "inputs": [],
      "name": "owner",
      "outputs": [
        {
          "internalType": "address",
          "name": "",
          "type": "address"
        }
      ],
      "stateMutability": "view",
      "type": "function"
    },
    {
      "inputs": [
        {
          "internalType": "string",
          "name": "certificateId",
          "type": "string"
        },
        {
          "internalType": "string",
          "name": "ownerName",
          "type": "string"
        },
        {
          "internalType": "string",
          "name": "courseName",
          "type": "string"
        },
        {
          "internalType": "string",
          "name": "issueDate",
          "type": "string"
        },
        {
          "internalType": "bytes32",
          "name": "documentHash",
          "type": "bytes32"
        }
      ],
      "name": "registerCertificate",
      "outputs": [],
      "stateMutability": "nonpayable",
      "type": "function"
    },
    {
      "inputs": [],
      "name": "renounceOwnership",
      "outputs": [],
      "stateMutability": "nonpayable",
      "type": "function"
    },
    {
      "inputs": [
        {
          "internalType": "string",
          "name": "certificateId",
          "type": "string"
        }
      ],
      "name": "revokeCertificate",
      "outputs": [],
      "stateMutability": "nonpayable",
      "type": "function"
    },
    {
      "inputs": [
        {
          "internalType": "address",
          "name": "issuer",
          "type": "address"
        }
      ],
      "name": "revokeIssuerAuthorization",
      "outputs": [],
      "stateMutability": "nonpayable",
      "type": "function"
    },
    {
      "inputs": [
        {
          "internalType": "address",
          "name": "newOwner",
          "type": "address"
        }
      ],
      "name": "transferOwnership",
      "outputs": [],
      "stateMutability": "nonpayable",
      "type": "function"
    },
    {
      "inputs": [
        {
          "internalType": "string",
          "name": "certificateId",
          "type": "string"
        },
        {
          "internalType": "bytes32",
          "name": "documentHash",
          "type": "bytes32"
        }
      ],
      "name": "verifyCertificateHash",
      "outputs": [
        {
          "internalType": "bool",
          "name": "",
          "type": "bool"
        }
      ],
      "stateMutability": "view",
      "type": "function"
    }
  ],
  "bytecode": "0x608060405234801561001057600080fd5b5060405161133538038061133583398101604081905261002f916100be565b806001600160a01b03811661005e57604051631e4fbdf760e01b81526000600482015260240160405180910390fd5b6100678161006e565b50506100ee565b600080546001600160a01b038381166001600160a01b0319831681178455604051919092169283917f8be0079c531659141344cd1fd0a4f28419497f9722a3daafe3b4186f6b6457e09190a35050565b6000602082840312156100d057600080fd5b81516001600160a01b03811681146100e757600080fd5b9392505050565b611238806100fd6000396000f3fe608060405234801561001057600080fd5b506004361061009e5760003560e01c8063aa87105e11610066578063aa87105e14610116578063ed0f2e7514610129578063f2fde38b14610149578063f4f7a8151461015c578063f731fa0f1461016f57600080fd5b8063142e1542146100a35780633bc717c5146100b8578063436693d5146100e0578063715018a6146100f35780638da5cb5b146100fb575b600080fd5b6100b66100b1366004610dd5565b610192565b005b6100cb6100c6366004610e17565b6102c8565b60405190151581526020015b60405180910390f35b6100b66100ee366004610e63565b6105b4565b6100b661062f565b6000546040516001600160a01b0390911681526020016100d7565b6100b6610124366004610e8c565b610643565b61013c610137366004610dd5565b610935565b6040516100d79190610f9e565b6100b6610157366004610e63565b610c80565b6100b661016a366004610e63565b610cbe565b6100cb61017d366004610e63565b60026020526000908152604090205460ff1681565b6000546001600160a01b031633148015906101bd57503360009081526002602052604090205460ff16155b156101db5760405163aecd430360e01b815260040160405180910390fd5b6000600183836040516101ef929190611062565b908152604051908190036020019020600581015490915060ff600160a01b9091041661023b578282604051632795691560e11b8152600401610232929190611072565b60405180910390fd5b6005810154600160a81b900460ff161561026c57828260405163073adcd760e41b8152600401610232929190611072565b60058101805460ff60a81b1916600160a81b17905560405133906102939085908590611062565b604051908190038120907f7b87df98e4ff33f07a9fbda6f93a6b69c498e48444877da8c54a83d3a43aee5b90600090a3505050565b600080600185856040516102dd929190611062565b908152602001604051809103902060405180610100016040529081600082018054610307906110a1565b80601f0160208091040260200160405190810160405280929190818152602001828054610333906110a1565b80156103805780601f1061035557610100808354040283529160200191610380565b820191906000526020600020905b81548152906001019060200180831161036357829003601f168201915b50505050508152602001600182018054610399906110a1565b80601f01602080910402602001604051908101604052809291908181526020018280546103c5906110a1565b80156104125780601f106103e757610100808354040283529160200191610412565b820191906000526020600020905b8154815290600101906020018083116103f557829003601f168201915b5050505050815260200160028201805461042b906110a1565b80601f0160208091040260200160405190810160405280929190818152602001828054610457906110a1565b80156104a45780601f10610479576101008083540402835291602001916104a4565b820191906000526020600020905b81548152906001019060200180831161048757829003601f168201915b505050505081526020016003820180546104bd906110a1565b80601f01602080910402602001604051908101604052809291908181526020018280546104e9906110a1565b80156105365780601f1061050b57610100808354040283529160200191610536565b820191906000526020600020905b81548152906001019060200180831161051957829003601f168201915b5050509183525050600482015460208201526005909101546001600160a01b038116604083015260ff600160a01b8204811615156060840152600160a81b90910416151560809091015260c0810151909150158061059557508060e001515b156105a45760009150506105ad565b60800151821490505b9392505050565b6105bc610d0f565b6001600160a01b0381166105e3576040516309e7616160e41b815260040160405180910390fd5b6001600160a01b038116600081815260026020526040808220805460ff19166001179055517f8b4006ca14f23d4e7aa8d120d1ab7c3761d650eefac1a5d6732dbea94b54ea249190a250565b610637610d0f565b6106416000610d3c565b565b6000546001600160a01b0316331480159061066e57503360009081526002602052604090205460ff16155b1561068c5760405163aecd430360e01b815260040160405180910390fd5b60008890036106ae57604051636f87018b60e11b815260040160405180910390fd5b600189896040516106c0929190611062565b9081526040519081900360200190206005015460ff600160a01b90910416156107005788886040516302ccaee760e61b8152600401610232929190611072565b6040518061010001604052808a8a8080601f016020809104026020016040519081016040528093929190818152602001838380828437600092019190915250505090825250604080516020601f8b0181900481028201810190925289815291810191908a908a9081908401838280828437600092019190915250505090825250604080516020601f890181900481028201810190925287815291810191908890889081908401838280828437600092019190915250505090825250604080516020601f8701819004810282018101909252858152918101919086908690819084018382808284376000920182905250938552505050602082018490523360408084019190915260016060840181905260809093019190915251610826908c908c90611062565b908152604051908190036020019020815181906108439082611142565b50602082015160018201906108589082611142565b506040820151600282019061086d9082611142565b50606082015160038201906108829082611142565b506080820151600482015560a08201516005909101805460c084015160e0909401511515600160a81b0260ff60a81b19941515600160a01b026001600160a81b03199092166001600160a01b0390941693909317179290921617905560405133906108f0908b908b90611062565b604051908190038120838252907ffab4bcff73aa164360d91700e6e533b6956783381d1e900e89dc90beac80b7019060200160405180910390a3505050505050505050565b60408051610100810182526060808252602082018190528183018190528082015260006080820181905260a0820181905260c0820181905260e082015290516001906109849085908590611062565b9081526040519081900360200190206005015460ff600160a01b909104166109c3578282604051632795691560e11b8152600401610232929190611072565b600183836040516109d5929190611062565b9081526020016040518091039020604051806101000160405290816000820180546109ff906110a1565b80601f0160208091040260200160405190810160405280929190818152602001828054610a2b906110a1565b8015610a785780601f10610a4d57610100808354040283529160200191610a78565b820191906000526020600020905b815481529060010190602001808311610a5b57829003601f168201915b50505050508152602001600182018054610a91906110a1565b80601f0160208091040260200160405190810160405280929190818152602001828054610abd906110a1565b8015610b0a5780601f10610adf57610100808354040283529160200191610b0a565b820191906000526020600020905b815481529060010190602001808311610aed57829003601f168201915b50505050508152602001600282018054610b23906110a1565b80601f0160208091040260200160405190810160405280929190818152602001828054610b4f906110a1565b8015610b9c5780601f10610b7157610100808354040283529160200191610b9c565b820191906000526020600020905b815481529060010190602001808311610b7f57829003601f168201915b50505050508152602001600382018054610bb5906110a1565b80601f0160208091040260200160405190810160405280929190818152602001828054610be1906110a1565b8015610c2e5780601f10610c0357610100808354040283529160200191610c2e565b820191906000526020600020905b815481529060010190602001808311610c1157829003601f168201915b5050509183525050600482015460208201526005909101546001600160a01b038116604083015260ff600160a01b8204811615156060840152600160a81b909104161515608090910152905092915050565b610c88610d0f565b6001600160a01b038116610cb257604051631e4fbdf760e01b815260006004820152602401610232565b610cbb81610d3c565b50565b610cc6610d0f565b6001600160a01b038116600081815260026020526040808220805460ff19169055517f95a4c2ae425bb769549aa1a911911ff57c17ae811ae8c8962d0b9746fcb153979190a250565b6000546001600160a01b031633146106415760405163118cdaa760e01b8152336004820152602401610232565b600080546001600160a01b038381166001600160a01b0319831681178455604051919092169283917f8be0079c531659141344cd1fd0a4f28419497f9722a3daafe3b4186f6b6457e09190a35050565b60008083601f840112610d9e57600080fd5b50813567ffffffffffffffff811115610db657600080fd5b602083019150836020828501011115610dce57600080fd5b9250929050565b60008060208385031215610de857600080fd5b823567ffffffffffffffff811115610dff57600080fd5b610e0b85828601610d8c565b90969095509350505050565b600080600060408486031215610e2c57600080fd5b833567ffffffffffffffff811115610e4357600080fd5b610e4f86828701610d8c565b909790965060209590950135949350505050565b600060208284031215610e7557600080fd5b81356001600160a01b03811681146105ad57600080fd5b600080600080600080600080600060a08a8c031215610eaa57600080fd5b893567ffffffffffffffff80821115610ec257600080fd5b610ece8d838e01610d8c565b909b50995060208c0135915080821115610ee757600080fd5b610ef38d838e01610d8c565b909950975060408c0135915080821115610f0c57600080fd5b610f188d838e01610d8c565b909750955060608c0135915080821115610f3157600080fd5b50610f3e8c828d01610d8c565b9a9d999c50979a9699959894979660800135949350505050565b6000815180845260005b81811015610f7e57602081850181015186830182015201610f62565b506000602082860101526020601f19601f83011685010191505092915050565b6020815260008251610100806020850152610fbd610120850183610f58565b91506020850151601f1980868503016040870152610fdb8483610f58565b93506040870151915080868503016060870152610ff88483610f58565b93506060870151915080868503016080870152506110168382610f58565b925050608085015160a085015260a085015161103d60c08601826001600160a01b03169052565b5060c085015180151560e08601525060e0850151801515858301525090949350505050565b8183823760009101908152919050565b60208152816020820152818360408301376000818301604090810191909152601f909201601f19160101919050565b600181811c908216806110b557607f821691505b6020821081036110d557634e487b7160e01b600052602260045260246000fd5b50919050565b634e487b7160e01b600052604160045260246000fd5b601f82111561113d576000816000526020600020601f850160051c8101602086101561111a5750805b601f850160051c820191505b8181101561113957828155600101611126565b5050505b505050565b815167ffffffffffffffff81111561115c5761115c6110db565b6111708161116a84546110a1565b846110f1565b602080601f8311600181146111a5576000841561118d5750858301515b600019600386901b1c1916600185901b178555611139565b600085815260208120601f198616915b828110156111d4578886015182559484019460019091019084016111b5565b50858210156111f25787850151600019600388901b60f8161c191681555b5050505050600190811b0190555056fea26469706673582212206aa11bc17b779f1d48a7cab6f978b7e03252b93834332f7cb3f921e4316117ba64736f6c63430008180033",
  "linkReferences": {},
  "deployedLinkReferences": {}
}